{
  "abi": [
    {
      "inputs": [],
      "stateMutability": "nonpayable",
      "type": "constructor"
    },
    {
      "inputs": [],
      "name": "AlreadyInitialized",
      "type": "error"
    },
    {
      "inputs": [],
      "name": "BalanceOverflow",
      "type": "error"
    },
    {
      "inputs": [],
      "name": "InsufficientInputAmount",
      "type": "error"
    },
    {
      "inputs": [],
      "name": "InsufficientLiquidity",
      "type": "error"
    },
    {
      "inputs": [],
      "name": "InsufficientLiquidityBurned",
      "type": "error"
    },
    {
      "inputs": [],
      "name": "InsufficientLiquidityMinted",
      "type": "error"
    },
    {
      "inputs": [],
      "name": "InsufficientOutputAmount",
      "type": "error"
    },
    {
      "inputs": [],
      "name": "InvalidK",
      "type": "error"
    },
    {
      "inputs": [],
      "name": "TransferFailed",
      "type": "error"
    },
    {
      "anonymous": false,
      "inputs": [
        {
          "indexed": true,
          "internalType": "address",
          "name": "owner",
          "type": "address"
        },
        {
          "indexed": true,
          "internalType": "address",
          "name": "spender",
          "type": "address"
        },
        {
          "indexed": false,
          "internalType": "uint256",
          "name": "amount",
          "type": "uint256"
        }
      ],
      "name": "Approval",
      "type": "event"
    },
    {
      "anonymous": false,
      "inputs": [
        {
          "indexed": true,
          "internalType": "address",
          "name": "sender",
          "type": "address"
        },
        {
          "indexed": false,
          "internalType": "uint256",
          "name": "amount0",
          "type": "uint256"
        },
        {
          "indexed": false,
          "internalType": "uint256",
          "name": "amount1",
          "type": "uint256"
        },
        {
          "indexed": false,
          "internalType": "address",
          "name": "to",
          "type": "address"
        }
      ],
      "name": "Burn",
      "type": "event"
    },
    {
      "anonymous": false,
      "inputs": [
        {
          "indexed": true,
          "internalType": "address",
          "name": "sender",
          "type": "address"
        },
        {
          "indexed": false,
          "internalType": "uint256",
          "name": "amount0",
          "type": "uint256"
        },
        {
          "indexed": false,
          "internalType": "uint256",
          "name": "amount1",
          "type": "uint256"
        }
      ],
      "name": "Mint",
      "type": "event"
    },
    {
      "anonymous": false,
      "inputs": [
        {
          "indexed": true,
          "internalType": "address",
          "name": "sender",
          "type": "address"
        },
        {
          "indexed": false,
          "internalType": "uint256",
          "name": "amount0Out",
          "type": "uint256"
        },
        {
          "indexed": false,
          "internalType": "uint256",
          "name": "amount1Out",
          "type": "uint256"
        },
        {
          "indexed": true,
          "internalType": "address",
          "name": "to",
          "type": "address"
        }
      ],
      "name": "Swap",
      "type": "event"
    },
    {
      "anonymous": false,
      "inputs": [
        {
          "indexed": false,
          "internalType": "uint256",
          "name": "reserve0",
          "type": "uint256"
        },
        {
          "indexed": false,
          "internalType": "uint256",
          "name": "reserve1",
          "type": "uint256"
        }
      ],
      "name": "Sync",
      "type": "event"
    },
    {
      "anonymous": false,
      "inputs": [
        {
          "indexed": true,
          "internalType": "address",
          "name": "from",
          "type": "address"
        },
        {
          "indexed": true,
          "internalType": "address",
          "name": "to",
          "type": "address"
        },
        {
          "indexed": false,
          "internalType": "uint256",
          "name": "amount",
          "type": "uint256"
        }
      ],
      "name": "Transfer",
      "type": "event"
    },
    {
      "inputs": [],
      "name": "DOMAIN_SEPARATOR",
      "outputs": [
        {
          "internalType": "bytes32",
          "name": "",
          "type": "bytes32"
        }
      ],
      "stateMutability": "view",
      "type": "function"
    },
    {
      "inputs": [],
      "name": "PERMIT_TYPEHASH",
      "outputs": [
        {
          "internalType": "bytes32",
          "name": "",
          "type": "bytes32"
        }
      ],
      "stateMutability": "view",
      "type": "function"
    },
    {
      "inputs": [
        {
          "internalType": "address",
          "name": "",
          "type": "address"
        },
        {
          "internalType": "address",
          "name": "",
          "type": "address"
        }
      ],
      "name": "allowance",
      "outputs": [
        {
          "internalType": "uint256",
          "name": "",
          "type": "uint256"
        }
      ],
      "stateMutability": "view",
      "type": "function"
    },
    {
      "inputs": [
        {
          "internalType": "address",
          "name": "spender",
          "type": "address"
        },
        {
          "internalType": "uint256",
          "name": "amount",
          "type": "uint256"
        }
      ],
      "name": "approve",
      "outputs": [
        {
          "internalType": "bool",
          "name": "",
          "type": "bool"
        }
      ],
      "stateMutability": "nonpayable",
      "type": "function"
    },
    {
      "inputs": [
        {
          "internalType": "address",
          "name": "",
          "type": "address"
        }
      ],
      "name": "balanceOf",
      "outputs": [
        {
          "internalType": "uint256",
          "name": "",
          "type": "uint256"
        }
      ],
      "stateMutability": "view",
      "type": "function"
    },
    {
      "inputs": [
        {
          "internalType": "address",
          "name": "to",
          "type": "address"
        }
      ],
      "name": "burn",
      "outputs": [
        {
          "internalType": "uint256",
          "name": "amount0",
          "type": "uint256"
        },
        {
          "internalType": "uint256",
          "name": "amount1",
          "type": "uint256"
        }
      ],
      "stateMutability": "nonpayable",
      "type": "function"
    },
    {
      "inputs": [],
      "name": "decimals",
      "outputs": [
        {
          "internalType": "uint8",
          "name": "",
          "type": "uint8"
        }
      ],
      "stateMutability": "view",
      "type": "function"
    },
    {
      "inputs": [],
      "name": "getReserves",
      "outputs": [
        {
          "internalType": "uint112",
          "name": "",
          "type": "uint112"
        },
        {
          "internalType": "uint112",
          "name": "",
          "type": "uint112"
        },
        {
          "internalType": "uint32",
          "name": "",
          "type": "uint32"
        }
      ],
      "stateMutability": "view",
      "type": "function"
    },
    {
      "inputs": [
        {
          "internalType": "address",
          "name": "token0_",
          "type": "address"
        },
        {
          "internalType": "address",
          "name": "token1_",
          "type": "address"
        }
      ],
      "name": "initialize",
      "outputs": [],
      "stateMutability": "nonpayable",
      "type": "function"
    },
    {
      "inputs": [
        {
          "internalType": "address",
          "name": "to",
          "type": "address"
        }
      ],
      "name": "mint",
      "outputs": [
        {
          "internalType": "uint256",
          "name": "liquidity",
          "type": "uint256"
        }
      ],
      "stateMutability": "nonpayable",
      "type": "function"
    },
    {
      "inputs": [],
      "name": "name",
      "outputs": [
        {
          "internalType": "string",
          "name": "",
          "type": "string"
        }
      ],
      "stateMutability": "view",
      "type": "function"
    },
    {
      "inputs": [
        {
          "internalType": "address",
          "name": "",
          "type": "address"
        }
      ],
      "name": "nonces",
      "outputs": [
        {
          "internalType": "uint256",
          "name": "",
          "type": "uint256"
        }
      ],
      "stateMutability": "view",
      "type": "function"
    },
    {
      "inputs": [
        {
          "internalType": "address",
          "name": "owner",
          "type": "address"
        },
        {
          "internalType": "address",
          "name": "spender",
          "type": "address"
        },
        {
          "internalType": "uint256",
          "name": "value",
          "type": "uint256"
        },
        {
          "internalType": "uint256",
          "name": "deadline",
          "type": "uint256"
        },
        {
          "internalType": "uint8",
          "name": "v",
          "type": "uint8"
        },
        {
          "internalType": "bytes32",
          "name": "r",
          "type": "bytes32"
        },
        {
          "internalType": "bytes32",
          "name": "s",
          "type": "bytes32"
        }
      ],
      "name": "permit",
      "outputs": [],
      "stateMutability": "nonpayable",
      "type": "function"
    },
    {
      "inputs": [],
      "name": "price0CumulativeLast",
      "outputs": [
        {
          "internalType": "uint256",
          "name": "",
          "type": "uint256"
        }
      ],
      "stateMutability": "view",
      "type": "function"
    },
    {
      "inputs": [],
      "name": "price1CumulativeLast",
      "outputs": [
        {
          "internalType": "uint256",
          "name": "",
          "type": "uint256"
        }
      ],
      "stateMutability": "view",
      "type": "function"
    },
    {
      "inputs": [
        {
          "internalType": "uint256",
          "name": "amount0Out",
          "type": "uint256"
        },
        {
          "internalType": "uint256",
          "name": "amount1Out",
          "type": "uint256"
        },
        {
          "internalType": "address",
          "name": "to",
          "type": "address"
        },
        {
          "internalType": "bytes",
          "name": "data",
          "type": "bytes"
        }
      ],
      "name": "swap",
      "outputs": [],
      "stateMutability": "nonpayable",
      "type": "function"
    },
    {
      "inputs": [],
      "name": "symbol",
      "outputs": [
        {
          "internalType": "string",
          "name": "",
          "type": "string"
        }
      ],
      "stateMutability": "view",
      "type": "function"
    },
    {
      "inputs": [],
      "name": "sync",
      "outputs": [],
      "stateMutability": "nonpayable",
      "type": "function"
    },
    {
      "inputs": [],
      "name": "token0",
      "outputs": [
        {
          "internalType": "address",
          "name": "",
          "type": "address"
        }
      ],
      "stateMutability": "view",
      "type": "function"
    },
    {
      "inputs": [],
      "name": "token1",
      "outputs": [
        {
          "internalType": "address",
          "name": "",
          "type": "address"
        }
      ],
      "stateMutability": "view",
      "type": "function"
    },
    {
      "inputs": [],
      "name": "totalSupply",
      "outputs": [
        {
          "internalType": "uint256",
          "name": "",
          "type": "uint256"
        }
      ],
      "stateMutability": "view",
      "type": "function"
    },
    {
      "inputs": [
        {
          "internalType": "address",
          "name": "to",
          "type": "address"
        },
        {
          "internalType": "uint256",
          "name": "amount",
          "type": "uint256"
        }
      ],
      "name": "transfer",
      "outputs": [
        {
          "internalType": "bool",
          "name": "",
          "type": "bool"
        }
      ],
      "stateMutability": "nonpayable",
      "type": "function"
    },
    {
      "inputs": [
        {
          "internalType": "address",
          "name": "from",
          "type": "address"
        },
        {
          "internalType": "address",
          "name": "to",
          "type": "address"
        },
        {
          "internalType": "uint256",
          "name": "amount",
          "type": "uint256"
        }
      ],
      "name": "transferFrom",
      "outputs": [
        {
          "internalType": "bool",
          "name": "",
          "type": "bool"
        }
      ],
      "stateMutability": "nonpayable",
      "type": "function"
    }
  ],
  "bytecode": {
    "object": "0x60e06040523480156200001157600080fd5b50604080518082018252600e81526d2ab734b9bbb0b82b19102830b4b960911b6020808301918252835180850190945260058452642aa724ab1960d91b90840152815191929160129162000069916000919062000153565b5081516200007f90600190602085019062000153565b5060ff81166080524660a05262000095620000a2565b60c05250620002da915050565b60007f8b73c3c69bb8fe3d512ecc4cf759cc79239f7b179b0ffacaa9a75d522b39400f6000604051620000d6919062000236565b60408051918290038220828201825260018352603160f81b6020938401528151928301939093528101919091527fc89efdaa54c0f20c7adf612882df0950f5a951637e0307cdcb4c672f298b8bc660608201524660808201523060a082015260c00160405160208183030381529060405280519060200120905090565b8280546200016190620001f9565b90600052602060002090601f016020900481019282620001855760008555620001d0565b82601f10620001a057805160ff1916838001178555620001d0565b82800160010185558215620001d0579182015b82811115620001d0578251825591602001919060010190620001b3565b50620001de929150620001e2565b5090565b5b80821115620001de5760008155600101620001e3565b600181811c908216806200020e57607f821691505b602082108114156200023057634e487b7160e01b600052602260045260246000fd5b50919050565b600080835481600182811c9150808316806200025357607f831692505b60208084108214156200027457634e487b7160e01b86526022600452602486fd5b8180156200028b57600181146200029d57620002cc565b60ff19861689528489019650620002cc565b60008a81526020902060005b86811015620002c45781548b820152908501908301620002a9565b505084890196505b509498975050505050505050565b60805160a05160c051611cd76200030a60003960006109e1015260006109ac0152600061025d0152611cd76000f3fe608060405234801561001057600080fd5b506004361061014d5760003560e01c80635909c0d5116100c357806395d89b411161007c57806395d89b4114610339578063a9059cbb14610341578063d21220a714610354578063d505accf14610367578063dd62ed3e1461037a578063fff6cae9146103a557600080fd5b80635909c0d5146102ac5780635a3d5493146102b55780636a627842146102be57806370a08231146102d15780637ecebe00146102f157806389afcb441461031157600080fd5b806318160ddd1161011557806318160ddd1461020757806323b872dd1461021e57806330adf81f14610231578063313ce567146102585780633644e51514610291578063485cc9551461029957600080fd5b8063022c0d9f1461015257806306fdde03146101675780630902f1ac14610185578063095ea7b3146101b95780630dfe1681146101dc575b600080fd5b61016561016036600461180c565b6103ad565b005b61016f61079c565b60405161017c91906118d0565b60405180910390f35b61018d61082a565b604080516001600160701b03948516815293909216602084015263ffffffff169082015260600161017c565b6101cc6101c7366004611903565b610854565b604051901515815260200161017c565b6006546101ef906001600160a01b031681565b6040516001600160a01b03909116815260200161017c565b61021060025481565b60405190815260200161017c565b6101cc61022c36600461192d565b6108c0565b6102107f6e71edae12b1b97f4d1f60370fef10105fa2faae0126114a169c64845d6126c981565b61027f7f000000000000000000000000000000000000000000000000000000000000000081565b60405160ff909116815260200161017c565b6102106109a8565b6101656102a7366004611969565b610a03565b61021060095481565b610210600a5481565b6102106102cc36600461199c565b610a71565b6102106102df36600461199c565b60036020526000908152604090205481565b6102106102ff36600461199c565b60056020526000908152604090205481565b61032461031f36600461199c565b610cad565b6040805192835260208301919091520161017c565b61016f610f8c565b6101cc61034f366004611903565b610f99565b6007546101ef906001600160a01b031681565b6101656103753660046119b7565b610fff565b610210610388366004611969565b600460209081526000928352604080842090915290825290205481565b610165611264565b600b5460ff16156103bd57600080fd5b600b805460ff19166001179055841580156103d6575083155b156103f4576040516342301c2360e01b815260040160405180910390fd5b6000806103ff61082a565b5091509150816001600160701b03168711806104235750806001600160701b031686115b156104415760405163bb55fd2760e01b815260040160405180910390fd5b861561045e5760065461045e906001600160a01b03168689611361565b851561047b5760075461047b906001600160a01b03168688611361565b82156104e8576040516304347a1760e21b81526001600160a01b038616906310d1e85c906104b59033908b908b908a908a90600401611a2a565b600060405180830381600087803b1580156104cf57600080fd5b505af11580156104e3573d6000803e3d6000fd5b505050505b6006546040516370a0823160e01b81523060048201526000916001600160a01b0316906370a08231906024016020604051808303816000875af1158015610533573d6000803e3d6000fd5b505050506040513d601f19601f820116820180604052508101906105579190611a76565b6007546040516370a0823160e01b81523060048201529192506000916001600160a01b03909116906370a08231906024016020604051808303816000875af11580156105a7573d6000803e3d6000fd5b505050506040513d601f19601f820116820180604052508101906105cb9190611a76565b6008549091506000906105e8908b906001600160701b0316611aa5565b83116105f5576000610616565b60085461060c908b906001600160701b0316611aa5565b6106169084611aa5565b60085490915060009061063a908b90600160701b90046001600160701b0316611aa5565b831161064757600061066f565b600854610665908b90600160701b90046001600160701b0316611aa5565b61066f9084611aa5565b90508115801561067d575080155b1561069b5760405163098fb56160e01b815260040160405180910390fd5b60006106a8836003611abc565b6106b4866103e8611abc565b6106be9190611aa5565b905060006106cd836003611abc565b6106d9866103e8611abc565b6106e39190611aa5565b90506106fb6001600160701b03808916908a16611abc565b61070890620f4240611abc565b6107128284611abc565b101561073157604051632f62f0d960e21b815260040160405180910390fd5b61073d86868a8a611450565b604080518e8152602081018e90526001600160a01b038d169133917f2a9237ff5aa599ef4c5ee4b1142b53429d5755e2685fe6288b2e3320202115f5910160405180910390a35050600b805460ff191690555050505050505050505050565b600080546107a990611adb565b80601f01602080910402602001604051908101604052809291908181526020018280546107d590611adb565b80156108225780601f106107f757610100808354040283529160200191610822565b820191906000526020600020905b81548152906001019060200180831161080557829003601f168201915b505050505081565b6008546001600160701b0380821692600160701b830490911691600160e01b900463ffffffff1690565b3360008181526004602090815260408083206001600160a01b038716808552925280832085905551919290917f8c5be1e5ebec7d5bd14f71427d1e84f3dd0314c0f7b2291e5b200ac8c7c3b925906108af9086815260200190565b60405180910390a350600192915050565b6001600160a01b038316600090815260046020908152604080832033845290915281205460001914610925576001600160a01b03841660009081526004602090815260408083203384529091528120805484929061091f908490611aa5565b90915550505b6001600160a01b0384166000908152600360205260408120805484929061094d908490611aa5565b90915550506001600160a01b0380841660008181526003602052604090819020805486019055519091861690600080516020611c82833981519152906109969086815260200190565b60405180910390a35060019392505050565b60007f000000000000000000000000000000000000000000000000000000000000000046146109de576109d96115ce565b905090565b507f000000000000000000000000000000000000000000000000000000000000000090565b6006546001600160a01b0316151580610a2657506007546001600160a01b031615155b15610a435760405162dc149f60e41b815260040160405180910390fd5b600680546001600160a01b039384166001600160a01b03199182161790915560078054929093169116179055565b6000806000610a7e61082a565b506006546040516370a0823160e01b81523060048201529294509092506000916001600160a01b03909116906370a08231906024016020604051808303816000875af1158015610ad2573d6000803e3d6000fd5b505050506040513d601f19601f82011682018060405250810190610af69190611a76565b6007546040516370a0823160e01b81523060048201529192506000916001600160a01b03909116906370a08231906024016020604051808303816000875af1158015610b46573d6000803e3d6000fd5b505050506040513d601f19601f82011682018060405250810190610b6a9190611a76565b90506000610b816001600160701b03861684611aa5565b90506000610b986001600160701b03861684611aa5565b905060025460001415610bd8576103e8610bba610bb58385611abc565b61167d565b610bc49190611aa5565b9650610bd360006103e86116ed565b610c27565b610c24866001600160701b031660025484610bf39190611abc565b610bfd9190611b26565b866001600160701b031660025484610c159190611abc565b610c1f9190611b26565b611747565b96505b60008711610c4857604051633489be7560e21b815260040160405180910390fd5b610c5288886116ed565b610c5e84848888611450565b60408051838152602081018390526001600160a01b038a16917f4c209b5fc8ad50758f13e2e1088ba56a560dff690a1c6fef26394f4c03821c4f910160405180910390a2505050505050919050565b6006546040516370a0823160e01b8152306004820152600091829182916001600160a01b0316906370a08231906024016020604051808303816000875af1158015610cfc573d6000803e3d6000fd5b505050506040513d601f19601f82011682018060405250810190610d209190611a76565b6007546040516370a0823160e01b81523060048201529192506000916001600160a01b03909116906370a08231906024016020604051808303816000875af1158015610d70573d6000803e3d6000fd5b505050506040513d601f19601f82011682018060405250810190610d949190611a76565b3060009081526003602052604090205460025491925090610db58483611abc565b610dbf9190611b26565b600254909550610dcf8383611abc565b610dd99190611b26565b9350841580610de6575083155b15610e045760405163749383ad60e01b815260040160405180910390fd5b610e0e308261175f565b600654610e25906001600160a01b03168787611361565b600754610e3c906001600160a01b03168786611361565b6006546040516370a0823160e01b81523060048201526001600160a01b03909116906370a08231906024016020604051808303816000875af1158015610e86573d6000803e3d6000fd5b505050506040513d601f19601f82011682018060405250810190610eaa9190611a76565b6007546040516370a0823160e01b81523060048201529194506001600160a01b0316906370a08231906024016020604051808303816000875af1158015610ef5573d6000803e3d6000fd5b505050506040513d601f19601f82011682018060405250810190610f199190611a76565b9150600080610f2661082a565b5091509150610f3785858484611450565b60408051888152602081018890526001600160a01b038a1681830152905133917fdccd412f0b1252819cb1fd330b93224ca42612892bb3f4f789976e6d81936496919081900360600190a25050505050915091565b600180546107a990611adb565b33600090815260036020526040812080548391908390610fba908490611aa5565b90915550506001600160a01b03831660008181526003602052604090819020805485019055513390600080516020611c82833981519152906108af9086815260200190565b428410156110545760405162461bcd60e51b815260206004820152601760248201527f5045524d49545f444541444c494e455f4558504952454400000000000000000060448201526064015b60405180910390fd5b600061105e6109a8565b6001600160a01b0389811660008181526005602090815260409182902080546001810190915582517f6e71edae12b1b97f4d1f60370fef10105fa2faae0126114a169c64845d6126c98184015280840194909452938c166060840152608083018b905260a083019390935260c08083018a90528151808403909101815260e08301909152805192019190912061190160f01b6101008301526101028201929092526101228101919091526101420160408051601f198184030181528282528051602091820120600080855291840180845281905260ff88169284019290925260608301869052608083018590529092509060019060a0016020604051602081039080840390855afa158015611177573d6000803e3d6000fd5b5050604051601f1901519150506001600160a01b038116158015906111ad5750886001600160a01b0316816001600160a01b0316145b6111f95760405162461bcd60e51b815260206004820152601860248201527f494e56414c49445f5045524d49545f5349474e41545552450000000000000000604482015260640161104b565b6001600160a01b0390811660009081526004602090815260408083208b8516808552908352928190208a905551898152919350918a16917f8c5be1e5ebec7d5bd14f71427d1e84f3dd0314c0f7b2291e5b200ac8c7c3b925910160405180910390a350505050505050565b60008061126f61082a565b506006546040516370a0823160e01b815230600482015292945090925061135d916001600160a01b03909116906370a08231906024016020604051808303816000875af11580156112c4573d6000803e3d6000fd5b505050506040513d601f19601f820116820180604052508101906112e89190611a76565b6007546040516370a0823160e01b81523060048201526001600160a01b03909116906370a08231906024016020604051808303816000875af1158015611332573d6000803e3d6000fd5b505050506040513d601f19601f820116820180604052508101906113569190611a76565b8484611450565b5050565b6040516001600160a01b03838116602483015260448201839052600091829186169060640160408051601f198184030181529181526020820180516001600160e01b031663a9059cbb60e01b179052516113bb9190611b3a565b6000604051808303816000865af19150503d80600081146113f8576040519150601f19603f3d011682016040523d82523d6000602084013e6113fd565b606091505b509150915081158061142b575080511580159061142b5750808060200190518101906114299190611b56565b155b15611449576040516312171d8360e31b815260040160405180910390fd5b5050505050565b6001600160701b0384118061146b57506001600160701b0383115b15611489576040516389560ca160e01b815260040160405180910390fd5b60085463ffffffff600160e01b90910481164203908116158015906114b757506000836001600160701b0316115b80156114cc57506000826001600160701b0316115b15611537578063ffffffff166114f4846114e5856117c1565b6001600160e01b0316906117e0565b600980546001600160e01b03929092169290920201905563ffffffff811661151f836114e5866117c1565b600a80546001600160e01b0392909216929092020190555b506008805463ffffffff4216600160e01b026001600160e01b036001600160701b03878116600160701b9081026001600160e01b03199095168a83161794909417918216831794859055604080519382169282169290921783529290930490911660208201527fcf2aa50876cdfbb541206f89af0ee78d44a2abf8d328e37fa4917f982149848a910160405180910390a150505050565b60007f8b73c3c69bb8fe3d512ecc4cf759cc79239f7b179b0ffacaa9a75d522b39400f60006040516116009190611b78565b60408051918290038220828201825260018352603160f81b6020938401528151928301939093528101919091527fc89efdaa54c0f20c7adf612882df0950f5a951637e0307cdcb4c672f298b8bc660608201524660808201523060a082015260c00160405160208183030381529060405280519060200120905090565b600060038211156116de5750806000611697600283611b26565b6116a2906001611c14565b90505b818110156116d8579050806002816116bd8186611b26565b6116c79190611c14565b6116d19190611b26565b90506116a5565b50919050565b81156116e8575060015b919050565b80600260008282546116ff9190611c14565b90915550506001600160a01b038216600081815260036020908152604080832080548601905551848152600080516020611c8283398151915291015b60405180910390a35050565b60008183106117565781611758565b825b9392505050565b6001600160a01b03821660009081526003602052604081208054839290611787908490611aa5565b90915550506002805482900390556040518181526000906001600160a01b03841690600080516020611c828339815191529060200161173b565b60006117da600160701b6001600160701b038416611c2c565b92915050565b60006117586001600160701b03831684611c5b565b80356001600160a01b03811681146116e857600080fd5b60008060008060006080868803121561182457600080fd5b853594506020860135935061183b604087016117f5565b9250606086013567ffffffffffffffff8082111561185857600080fd5b818801915088601f83011261186c57600080fd5b81358181111561187b57600080fd5b89602082850101111561188d57600080fd5b9699959850939650602001949392505050565b60005b838110156118bb5781810151838201526020016118a3565b838111156118ca576000848401525b50505050565b60208152600082518060208401526118ef8160408501602087016118a0565b601f01601f19169190910160400192915050565b6000806040838503121561191657600080fd5b61191f836117f5565b946020939093013593505050565b60008060006060848603121561194257600080fd5b61194b846117f5565b9250611959602085016117f5565b9150604084013590509250925092565b6000806040838503121561197c57600080fd5b611985836117f5565b9150611993602084016117f5565b90509250929050565b6000602082840312156119ae57600080fd5b611758826117f5565b600080600080600080600060e0888a0312156119d257600080fd5b6119db886117f5565b96506119e9602089016117f5565b95506040880135945060608801359350608088013560ff81168114611a0d57600080fd5b9699959850939692959460a0840135945060c09093013592915050565b60018060a01b038616815284602082015283604082015260806060820152816080820152818360a0830137600081830160a090810191909152601f909201601f19160101949350505050565b600060208284031215611a8857600080fd5b5051919050565b634e487b7160e01b600052601160045260246000fd5b600082821015611ab757611ab7611a8f565b500390565b6000816000190483118215151615611ad657611ad6611a8f565b500290565b600181811c90821680611aef57607f821691505b602082108114156116d857634e487b7160e01b600052602260045260246000fd5b634e487b7160e01b600052601260045260246000fd5b600082611b3557611b35611b10565b500490565b60008251611b4c8184602087016118a0565b9190910192915050565b600060208284031215611b6857600080fd5b8151801515811461175857600080fd5b600080835481600182811c915080831680611b9457607f831692505b6020808410821415611bb457634e487b7160e01b86526022600452602486fd5b818015611bc85760018114611bd957611c06565b60ff19861689528489019650611c06565b60008a81526020902060005b86811015611bfe5781548b820152908501908301611be5565b505084890196505b509498975050505050505050565b60008219821115611c2757611c27611a8f565b500190565b60006001600160e01b0382811684821681151582840482111615611c5257611c52611a8f565b02949350505050565b60006001600160e01b0383811680611c7557611c75611b10565b9216919091049291505056feddf252ad1be2c89b69c2b068fc378daa952ba7f163c4a11628f55a4df523b3efa264697066735822122046d47695eb71ce446a987b16abbcebc59fdc8498ca778a43104fe514f786fece64736f6c634300080a0033",
    "linkReferences": {}
  },
  "methodIdentifiers": {
    "DOMAIN_SEPARATOR()": "3644e515",
    "PERMIT_TYPEHASH()": "30adf81f",
    "allowance(address,address)": "dd62ed3e",
    "approve(address,uint256)": "095ea7b3",
    "balanceOf(address)": "70a08231",
    "burn(address)": "89afcb44",
    "decimals()": "313ce567",
    "getReserves()": "0902f1ac",
    "initialize(address,address)": "485cc955",
    "mint(address)": "6a627842",
    "name()": "06fdde03",
    "nonces(address)": "7ecebe00",
    "permit(address,address,uint256,uint256,uint8,bytes32,bytes32)": "d505accf",
    "price0CumulativeLast()": "5909c0d5",
    "price1CumulativeLast()": "5a3d5493",
    "swap(uint256,uint256,address,bytes)": "022c0d9f",
    "symbol()": "95d89b41",
    "sync()": "fff6cae9",
    "token0()": "0dfe1681",
    "token1()": "d21220a7",
    "totalSupply()": "18160ddd",
    "transfer(address,uint256)": "a9059cbb",
    "transferFrom(address,address,uint256)": "23b872dd"
  },
  "id": 9
}