{
  "abi": [
    {
      "inputs": [],
      "name": "InsufficientAmount",
      "type": "error"
    },
    {
      "inputs": [],
      "name": "InsufficientLiquidity",
      "type": "error"
    },
    {
      "inputs": [],
      "name": "InvalidPath",
      "type": "error"
    },
    {
      "inputs": [
        {
          "internalType": "uint256",
          "name": "amountOut",
          "type": "uint256"
        },
        {
          "internalType": "uint256",
          "name": "reserveIn",
          "type": "uint256"
        },
        {
          "internalType": "uint256",
          "name": "reserveOut",
          "type": "uint256"
        }
      ],
      "name": "getAmountIn",
      "outputs": [
        {
          "internalType": "uint256",
          "name": "",
          "type": "uint256"
        }
      ],
      "stateMutability": "pure",
      "type": "function"
    },
    {
      "inputs": [
        {
          "internalType": "uint256",
          "name": "amountIn",
          "type": "uint256"
        },
        {
          "internalType": "uint256",
          "name": "reserveIn",
          "type": "uint256"
        },
        {
          "internalType": "uint256",
          "name": "reserveOut",
          "type": "uint256"
        }
      ],
      "name": "getAmountOut",
      "outputs": [
        {
          "internalType": "uint256",
          "name": "",
          "type": "uint256"
        }
      ],
      "stateMutability": "pure",
      "type": "function"
    },
    {
      "inputs": [
        {
          "internalType": "uint256",
          "name": "amountIn",
          "type": "uint256"
        },
        {
          "internalType": "uint256",
          "name": "reserveIn",
          "type": "uint256"
        },
        {
          "internalType": "uint256",
          "name": "reserveOut",
          "type": "uint256"
        }
      ],
      "name": "quote",
      "outputs": [
        {
          "internalType": "uint256",
          "name": "amountOut",
          "type": "uint256"
        }
      ],
      "stateMutability": "pure",
      "type": "function"
    }
  ],
  "bytecode": {
    "object": "0x612b6361003a600b82828239805160001a60731461002d57634e487b7160e01b600052600060045260246000fd5b30600052607381538281f3fe7300000000000000000000000000000000000000003014608060405260043610620000735760003560e01c8063054d50d41462000078578063192128b214620000a25780633274946114620000d657806385f8c2591462000111578063ad615dec1462000128578063bb7b9c76146200013f575b600080fd5b6200008f620000893660046200081d565b62000164565b6040519081526020015b60405180910390f35b818015620000af57600080fd5b50620000c7620000c13660046200087d565b62000208565b6040516200009991906200096e565b818015620000e357600080fd5b50620000fb620000f5366004620009b4565b62000396565b6040805192835260208301919091520162000099565b6200008f620001223660046200081d565b6200046e565b6200008f620001393660046200081d565b62000519565b8180156200014c57600080fd5b50620000c76200015e3660046200087d565b62000586565b6000836200018557604051632ca2f52b60e11b815260040160405180910390fd5b82158062000191575081155b15620001b05760405163bb55fd2760e01b815260040160405180910390fd5b6000620001c0856103e562000a14565b90506000620001d0848362000a14565b9050600082620001e3876103e862000a14565b620001ef919062000a36565b9050620001fd818362000a51565b979650505050505050565b60606002825110156200022e576040516320db826760e01b815260040160405180910390fd5b6000825167ffffffffffffffff8111156200024d576200024d62000867565b60405190808252806020026020018201604052801562000277578160200160208202803683370190505b5090508381600183516200028c919062000a74565b815181106200029f576200029f62000a8e565b602002602001018181525050600060018451620002bd919062000a74565b90505b80156200038d576000806200031b8887620002dd60018762000a74565b81518110620002f057620002f062000a8e565b60200260200101518886815181106200030d576200030d62000a8e565b602002602001015162000396565b915091506200034884848151811062000338576200033862000a8e565b602002602001015183836200046e565b846200035660018662000a74565b8151811062000369576200036962000a8e565b60200260200101818152505050508080620003849062000aa4565b915050620002c0565b50949350505050565b600080600080620003a88686620006f0565b91509150600080620003bc89858562000723565b6001600160a01b0316630902f1ac6040518163ffffffff1660e01b81526004016060604051808303816000875af1158015620003fc573d6000803e3d6000fd5b505050506040513d601f19601f8201168201806040525081019062000422919062000ad6565b506001600160701b031691506001600160701b03169150836001600160a01b0316886001600160a01b0316146200045b5780826200045e565b81815b909a909950975050505050505050565b6000836200048f57604051632ca2f52b60e11b815260040160405180910390fd5b8215806200049b575081155b15620004ba5760405163bb55fd2760e01b815260040160405180910390fd5b6000620004c8858562000a14565b620004d6906103e862000a14565b90506000620004e6868562000a74565b620004f4906103e562000a14565b905062000502818362000a51565b6200050f90600162000a36565b9695505050505050565b6000836200053a57604051632ca2f52b60e11b815260040160405180910390fd5b82158062000546575081155b15620005655760405163bb55fd2760e01b815260040160405180910390fd5b8262000572838662000a14565b6200057e919062000a51565b949350505050565b6060600282511015620005ac576040516320db826760e01b815260040160405180910390fd5b6000825167ffffffffffffffff811115620005cb57620005cb62000867565b604051908082528060200260200182016040528015620005f5578160200160208202803683370190505b50905083816000815181106200060f576200060f62000a8e565b60200260200101818152505060005b600184516200062e919062000a74565b8110156200038d576000806200067e8887858151811062000653576200065362000a8e565b6020026020010151888660016200066b919062000a36565b815181106200030d576200030d62000a8e565b91509150620006ab8484815181106200069b576200069b62000a8e565b6020026020010151838362000164565b84620006b985600162000a36565b81518110620006cc57620006cc62000a8e565b60200260200101818152505050508080620006e79062000b2c565b9150506200061e565b600080826001600160a01b0316846001600160a01b0316106200071557828462000718565b83835b915091509250929050565b6000806000620007348585620006f0565b6040516bffffffffffffffffffffffff19606084811b8216602084015283901b1660348201529193509150869060480160405160208183030381529060405280519060200120604051806020016200078c906200080f565b6020820181038252601f19601f8201166040525080519060200120604051602001620007ed939291906001600160f81b0319815260609390931b6bffffffffffffffffffffffff191660018401526015830191909152603582015260550190565b60408051601f1981840301815291905280516020909101209695505050505050565b611fe38062000b4b83390190565b6000806000606084860312156200083357600080fd5b505081359360208301359350604090920135919050565b80356001600160a01b03811681146200086257600080fd5b919050565b634e487b7160e01b600052604160045260246000fd5b6000806000606084860312156200089357600080fd5b6200089e846200084a565b92506020808501359250604085013567ffffffffffffffff80821115620008c457600080fd5b818701915087601f830112620008d957600080fd5b813581811115620008ee57620008ee62000867565b8060051b604051601f19603f8301168101818110858211171562000916576200091662000867565b60405291825284820192508381018501918a8311156200093557600080fd5b938501935b828510156200095e576200094e856200084a565b845293850193928501926200093a565b8096505050505050509250925092565b6020808252825182820181905260009190848201906040850190845b81811015620009a8578351835292840192918401916001016200098a565b50909695505050505050565b600080600060608486031215620009ca57600080fd5b620009d5846200084a565b9250620009e5602085016200084a565b9150620009f5604085016200084a565b90509250925092565b634e487b7160e01b600052601160045260246000fd5b600081600019048311821515161562000a315762000a31620009fe565b500290565b6000821982111562000a4c5762000a4c620009fe565b500190565b60008262000a6f57634e487b7160e01b600052601260045260246000fd5b500490565b60008282101562000a895762000a89620009fe565b500390565b634e487b7160e01b600052603260045260246000fd5b60008162000ab65762000ab6620009fe565b506000190190565b80516001600160701b03811681146200086257600080fd5b60008060006060848603121562000aec57600080fd5b62000af78462000abe565b925062000b076020850162000abe565b9150604084015163ffffffff8116811462000b2157600080fd5b809150509250925092565b600060001982141562000b435762000b43620009fe565b506001019056fe60e06040523480156200001157600080fd5b50604080518082018252600f81526e2d3ab734b9bbb0b82b19102830b4b960891b6020808301918252835180850190945260068452652d2aa724ab1960d11b9084015281519192916012916200006b916000919062000155565b5081516200008190600190602085019062000155565b5060ff81166080524660a05262000097620000a4565b60c05250620002dc915050565b60007f8b73c3c69bb8fe3d512ecc4cf759cc79239f7b179b0ffacaa9a75d522b39400f6000604051620000d8919062000238565b60408051918290038220828201825260018352603160f81b6020938401528151928301939093528101919091527fc89efdaa54c0f20c7adf612882df0950f5a951637e0307cdcb4c672f298b8bc660608201524660808201523060a082015260c00160405160208183030381529060405280519060200120905090565b8280546200016390620001fb565b90600052602060002090601f016020900481019282620001875760008555620001d2565b82601f10620001a257805160ff1916838001178555620001d2565b82800160010185558215620001d2579182015b82811115620001d2578251825591602001919060010190620001b5565b50620001e0929150620001e4565b5090565b5b80821115620001e05760008155600101620001e5565b600181811c908216806200021057607f821691505b602082108114156200023257634e487b7160e01b600052602260045260246000fd5b50919050565b600080835481600182811c9150808316806200025557607f831692505b60208084108214156200027657634e487b7160e01b86526022600452602486fd5b8180156200028d57600181146200029f57620002ce565b60ff19861689528489019650620002ce565b60008a81526020902060005b86811015620002c65781548b820152908501908301620002ab565b505084890196505b509498975050505050505050565b60805160a05160c051611cd76200030c60003960006109e1015260006109ac0152600061025d0152611cd76000f3fe608060405234801561001057600080fd5b506004361061014d5760003560e01c80635909c0d5116100c357806395d89b411161007c57806395d89b4114610339578063a9059cbb14610341578063d21220a714610354578063d505accf14610367578063dd62ed3e1461037a578063fff6cae9146103a557600080fd5b80635909c0d5146102ac5780635a3d5493146102b55780636a627842146102be57806370a08231146102d15780637ecebe00146102f157806389afcb441461031157600080fd5b806318160ddd1161011557806318160ddd1461020757806323b872dd1461021e57806330adf81f14610231578063313ce567146102585780633644e51514610291578063485cc9551461029957600080fd5b8063022c0d9f1461015257806306fdde03146101675780630902f1ac14610185578063095ea7b3146101b95780630dfe1681146101dc575b600080fd5b61016561016036600461180c565b6103ad565b005b61016f61079c565b60405161017c91906118d0565b60405180910390f35b61018d61082a565b604080516001600160701b03948516815293909216602084015263ffffffff169082015260600161017c565b6101cc6101c7366004611903565b610854565b604051901515815260200161017c565b6006546101ef906001600160a01b031681565b6040516001600160a01b03909116815260200161017c565b61021060025481565b60405190815260200161017c565b6101cc61022c36600461192d565b6108c0565b6102107f6e71edae12b1b97f4d1f60370fef10105fa2faae0126114a169c64845d6126c981565b61027f7f000000000000000000000000000000000000000000000000000000000000000081565b60405160ff909116815260200161017c565b6102106109a8565b6101656102a7366004611969565b610a03565b61021060095481565b610210600a5481565b6102106102cc36600461199c565b610a71565b6102106102df36600461199c565b60036020526000908152604090205481565b6102106102ff36600461199c565b60056020526000908152604090205481565b61032461031f36600461199c565b610cad565b6040805192835260208301919091520161017c565b61016f610f8c565b6101cc61034f366004611903565b610f99565b6007546101ef906001600160a01b031681565b6101656103753660046119b7565b610fff565b610210610388366004611969565b600460209081526000928352604080842090915290825290205481565b610165611264565b600b5460ff16156103bd57600080fd5b600b805460ff19166001179055841580156103d6575083155b156103f4576040516342301c2360e01b815260040160405180910390fd5b6000806103ff61082a565b5091509150816001600160701b03168711806104235750806001600160701b031686115b156104415760405163bb55fd2760e01b815260040160405180910390fd5b861561045e5760065461045e906001600160a01b03168689611361565b851561047b5760075461047b906001600160a01b03168688611361565b82156104e857604051630c68e5d560e41b81526001600160a01b0386169063c68e5d50906104b59033908b908b908a908a90600401611a2a565b600060405180830381600087803b1580156104cf57600080fd5b505af11580156104e3573d6000803e3d6000fd5b505050505b6006546040516370a0823160e01b81523060048201526000916001600160a01b0316906370a08231906024016020604051808303816000875af1158015610533573d6000803e3d6000fd5b505050506040513d601f19601f820116820180604052508101906105579190611a76565b6007546040516370a0823160e01b81523060048201529192506000916001600160a01b03909116906370a08231906024016020604051808303816000875af11580156105a7573d6000803e3d6000fd5b505050506040513d601f19601f820116820180604052508101906105cb9190611a76565b6008549091506000906105e8908b906001600160701b0316611aa5565b83116105f5576000610616565b60085461060c908b906001600160701b0316611aa5565b6106169084611aa5565b60085490915060009061063a908b90600160701b90046001600160701b0316611aa5565b831161064757600061066f565b600854610665908b90600160701b90046001600160701b0316611aa5565b61066f9084611aa5565b90508115801561067d575080155b1561069b5760405163098fb56160e01b815260040160405180910390fd5b60006106a8836003611abc565b6106b4866103e8611abc565b6106be9190611aa5565b905060006106cd836003611abc565b6106d9866103e8611abc565b6106e39190611aa5565b90506106fb6001600160701b03808916908a16611abc565b61070890620f4240611abc565b6107128284611abc565b101561073157604051632f62f0d960e21b815260040160405180910390fd5b61073d86868a8a611450565b604080518e8152602081018e90526001600160a01b038d169133917f2a9237ff5aa599ef4c5ee4b1142b53429d5755e2685fe6288b2e3320202115f5910160405180910390a35050600b805460ff191690555050505050505050505050565b600080546107a990611adb565b80601f01602080910402602001604051908101604052809291908181526020018280546107d590611adb565b80156108225780601f106107f757610100808354040283529160200191610822565b820191906000526020600020905b81548152906001019060200180831161080557829003601f168201915b505050505081565b6008546001600160701b0380821692600160701b830490911691600160e01b900463ffffffff1690565b3360008181526004602090815260408083206001600160a01b038716808552925280832085905551919290917f8c5be1e5ebec7d5bd14f71427d1e84f3dd0314c0f7b2291e5b200ac8c7c3b925906108af9086815260200190565b60405180910390a350600192915050565b6001600160a01b038316600090815260046020908152604080832033845290915281205460001914610925576001600160a01b03841660009081526004602090815260408083203384529091528120805484929061091f908490611aa5565b90915550505b6001600160a01b0384166000908152600360205260408120805484929061094d908490611aa5565b90915550506001600160a01b0380841660008181526003602052604090819020805486019055519091861690600080516020611c82833981519152906109969086815260200190565b60405180910390a35060019392505050565b60007f000000000000000000000000000000000000000000000000000000000000000046146109de576109d96115ce565b905090565b507f000000000000000000000000000000000000000000000000000000000000000090565b6006546001600160a01b0316151580610a2657506007546001600160a01b031615155b15610a435760405162dc149f60e41b815260040160405180910390fd5b600680546001600160a01b039384166001600160a01b03199182161790915560078054929093169116179055565b6000806000610a7e61082a565b506006546040516370a0823160e01b81523060048201529294509092506000916001600160a01b03909116906370a08231906024016020604051808303816000875af1158015610ad2573d6000803e3d6000fd5b505050506040513d601f19601f82011682018060405250810190610af69190611a76565b6007546040516370a0823160e01b81523060048201529192506000916001600160a01b03909116906370a08231906024016020604051808303816000875af1158015610b46573d6000803e3d6000fd5b505050506040513d601f19601f82011682018060405250810190610b6a9190611a76565b90506000610b816001600160701b03861684611aa5565b90506000610b986001600160701b03861684611aa5565b905060025460001415610bd8576103e8610bba610bb58385611abc565b61167d565b610bc49190611aa5565b9650610bd360006103e86116ed565b610c27565b610c24866001600160701b031660025484610bf39190611abc565b610bfd9190611b26565b866001600160701b031660025484610c159190611abc565b610c1f9190611b26565b611747565b96505b60008711610c4857604051633489be7560e21b815260040160405180910390fd5b610c5288886116ed565b610c5e84848888611450565b60408051838152602081018390526001600160a01b038a16917f4c209b5fc8ad50758f13e2e1088ba56a560dff690a1c6fef26394f4c03821c4f910160405180910390a2505050505050919050565b6006546040516370a0823160e01b8152306004820152600091829182916001600160a01b0316906370a08231906024016020604051808303816000875af1158015610cfc573d6000803e3d6000fd5b505050506040513d601f19601f82011682018060405250810190610d209190611a76565b6007546040516370a0823160e01b81523060048201529192506000916001600160a01b03909116906370a08231906024016020604051808303816000875af1158015610d70573d6000803e3d6000fd5b505050506040513d601f19601f82011682018060405250810190610d949190611a76565b3060009081526003602052604090205460025491925090610db58483611abc565b610dbf9190611b26565b600254909550610dcf8383611abc565b610dd99190611b26565b9350841580610de6575083155b15610e045760405163749383ad60e01b815260040160405180910390fd5b610e0e308261175f565b600654610e25906001600160a01b03168787611361565b600754610e3c906001600160a01b03168786611361565b6006546040516370a0823160e01b81523060048201526001600160a01b03909116906370a08231906024016020604051808303816000875af1158015610e86573d6000803e3d6000fd5b505050506040513d601f19601f82011682018060405250810190610eaa9190611a76565b6007546040516370a0823160e01b81523060048201529194506001600160a01b0316906370a08231906024016020604051808303816000875af1158015610ef5573d6000803e3d6000fd5b505050506040513d601f19601f82011682018060405250810190610f199190611a76565b9150600080610f2661082a565b5091509150610f3785858484611450565b60408051888152602081018890526001600160a01b038a1681830152905133917fdccd412f0b1252819cb1fd330b93224ca42612892bb3f4f789976e6d81936496919081900360600190a25050505050915091565b600180546107a990611adb565b33600090815260036020526040812080548391908390610fba908490611aa5565b90915550506001600160a01b03831660008181526003602052604090819020805485019055513390600080516020611c82833981519152906108af9086815260200190565b428410156110545760405162461bcd60e51b815260206004820152601760248201527f5045524d49545f444541444c494e455f4558504952454400000000000000000060448201526064015b60405180910390fd5b600061105e6109a8565b6001600160a01b0389811660008181526005602090815260409182902080546001810190915582517f6e71edae12b1b97f4d1f60370fef10105fa2faae0126114a169c64845d6126c98184015280840194909452938c166060840152608083018b905260a083019390935260c08083018a90528151808403909101815260e08301909152805192019190912061190160f01b6101008301526101028201929092526101228101919091526101420160408051601f198184030181528282528051602091820120600080855291840180845281905260ff88169284019290925260608301869052608083018590529092509060019060a0016020604051602081039080840390855afa158015611177573d6000803e3d6000fd5b5050604051601f1901519150506001600160a01b038116158015906111ad5750886001600160a01b0316816001600160a01b0316145b6111f95760405162461bcd60e51b815260206004820152601860248201527f494e56414c49445f5045524d49545f5349474e41545552450000000000000000604482015260640161104b565b6001600160a01b0390811660009081526004602090815260408083208b8516808552908352928190208a905551898152919350918a16917f8c5be1e5ebec7d5bd14f71427d1e84f3dd0314c0f7b2291e5b200ac8c7c3b925910160405180910390a350505050505050565b60008061126f61082a565b506006546040516370a0823160e01b815230600482015292945090925061135d916001600160a01b03909116906370a08231906024016020604051808303816000875af11580156112c4573d6000803e3d6000fd5b505050506040513d601f19601f820116820180604052508101906112e89190611a76565b6007546040516370a0823160e01b81523060048201526001600160a01b03909116906370a08231906024016020604051808303816000875af1158015611332573d6000803e3d6000fd5b505050506040513d601f19601f820116820180604052508101906113569190611a76565b8484611450565b5050565b6040516001600160a01b03838116602483015260448201839052600091829186169060640160408051601f198184030181529181526020820180516001600160e01b031663a9059cbb60e01b179052516113bb9190611b3a565b6000604051808303816000865af19150503d80600081146113f8576040519150601f19603f3d011682016040523d82523d6000602084013e6113fd565b606091505b509150915081158061142b575080511580159061142b5750808060200190518101906114299190611b56565b155b15611449576040516312171d8360e31b815260040160405180910390fd5b5050505050565b6001600160701b0384118061146b57506001600160701b0383115b15611489576040516389560ca160e01b815260040160405180910390fd5b60085463ffffffff600160e01b90910481164203908116158015906114b757506000836001600160701b0316115b80156114cc57506000826001600160701b0316115b15611537578063ffffffff166114f4846114e5856117c1565b6001600160e01b0316906117e0565b600980546001600160e01b03929092169290920201905563ffffffff811661151f836114e5866117c1565b600a80546001600160e01b0392909216929092020190555b506008805463ffffffff4216600160e01b026001600160e01b036001600160701b03878116600160701b9081026001600160e01b03199095168a83161794909417918216831794859055604080519382169282169290921783529290930490911660208201527fcf2aa50876cdfbb541206f89af0ee78d44a2abf8d328e37fa4917f982149848a910160405180910390a150505050565b60007f8b73c3c69bb8fe3d512ecc4cf759cc79239f7b179b0ffacaa9a75d522b39400f60006040516116009190611b78565b60408051918290038220828201825260018352603160f81b6020938401528151928301939093528101919091527fc89efdaa54c0f20c7adf612882df0950f5a951637e0307cdcb4c672f298b8bc660608201524660808201523060a082015260c00160405160208183030381529060405280519060200120905090565b600060038211156116de5750806000611697600283611b26565b6116a2906001611c14565b90505b818110156116d8579050806002816116bd8186611b26565b6116c79190611c14565b6116d19190611b26565b90506116a5565b50919050565b81156116e8575060015b919050565b80600260008282546116ff9190611c14565b90915550506001600160a01b038216600081815260036020908152604080832080548601905551848152600080516020611c8283398151915291015b60405180910390a35050565b60008183106117565781611758565b825b9392505050565b6001600160a01b03821660009081526003602052604081208054839290611787908490611aa5565b90915550506002805482900390556040518181526000906001600160a01b03841690600080516020611c828339815191529060200161173b565b60006117da600160701b6001600160701b038416611c2c565b92915050565b60006117586001600160701b03831684611c5b565b80356001600160a01b03811681146116e857600080fd5b60008060008060006080868803121561182457600080fd5b853594506020860135935061183b604087016117f5565b9250606086013567ffffffffffffffff8082111561185857600080fd5b818801915088601f83011261186c57600080fd5b81358181111561187b57600080fd5b89602082850101111561188d57600080fd5b9699959850939650602001949392505050565b60005b838110156118bb5781810151838201526020016118a3565b838111156118ca576000848401525b50505050565b60208152600082518060208401526118ef8160408501602087016118a0565b601f01601f19169190910160400192915050565b6000806040838503121561191657600080fd5b61191f836117f5565b946020939093013593505050565b60008060006060848603121561194257600080fd5b61194b846117f5565b9250611959602085016117f5565b9150604084013590509250925092565b6000806040838503121561197c57600080fd5b611985836117f5565b9150611993602084016117f5565b90509250929050565b6000602082840312156119ae57600080fd5b611758826117f5565b600080600080600080600060e0888a0312156119d257600080fd5b6119db886117f5565b96506119e9602089016117f5565b95506040880135945060608801359350608088013560ff81168114611a0d57600080fd5b9699959850939692959460a0840135945060c09093013592915050565b60018060a01b038616815284602082015283604082015260806060820152816080820152818360a0830137600081830160a090810191909152601f909201601f19160101949350505050565b600060208284031215611a8857600080fd5b5051919050565b634e487b7160e01b600052601160045260246000fd5b600082821015611ab757611ab7611a8f565b500390565b6000816000190483118215151615611ad657611ad6611a8f565b500290565b600181811c90821680611aef57607f821691505b602082108114156116d857634e487b7160e01b600052602260045260246000fd5b634e487b7160e01b600052601260045260246000fd5b600082611b3557611b35611b10565b500490565b60008251611b4c8184602087016118a0565b9190910192915050565b600060208284031215611b6857600080fd5b8151801515811461175857600080fd5b600080835481600182811c915080831680611b9457607f831692505b6020808410821415611bb457634e487b7160e01b86526022600452602486fd5b818015611bc85760018114611bd957611c06565b60ff19861689528489019650611c06565b60008a81526020902060005b86811015611bfe5781548b820152908501908301611be5565b505084890196505b509498975050505050505050565b60008219821115611c2757611c27611a8f565b500190565b60006001600160e01b0382811684821681151582840482111615611c5257611c52611a8f565b02949350505050565b60006001600160e01b0383811680611c7557611c75611b10565b9216919091049291505056feddf252ad1be2c89b69c2b068fc378daa952ba7f163c4a11628f55a4df523b3efa2646970667358221220733b10b62e03942f5da903514f96bc63f83f6ab4c932ee64b68923a4b28f131b64736f6c634300080a0033a2646970667358221220c3c166d873120f9eb26c4631f984c40d515d5ce1544a647ac9c5cc7a4322a61f64736f6c634300080a0033",
    "linkReferences": {}
  },
  "methodIdentifiers": {
    "getAmountIn(uint256,uint256,uint256)": "85f8c259",
    "getAmountOut(uint256,uint256,uint256)": "054d50d4",
    "getAmountsIn(address,uint256,address[])": "192128b2",
    "getAmountsOut(address,uint256,address[])": "bb7b9c76",
    "getReserves(address,address,address)": "32749461",
    "quote(uint256,uint256,uint256)": "ad615dec"
  },
  "id": 8
}