{
  "abi": [
    {
      "inputs": [
        {
          "internalType": "address",
          "name": "factoryAddress",
          "type": "address"
        }
      ],
      "stateMutability": "nonpayable",
      "type": "constructor"
    },
    {
      "inputs": [],
      "name": "ExcessiveInputAmount",
      "type": "error"
    },
    {
      "inputs": [],
      "name": "InsufficientAAmount",
      "type": "error"
    },
    {
      "inputs": [],
      "name": "InsufficientBAmount",
      "type": "error"
    },
    {
      "inputs": [],
      "name": "InsufficientOutputAmount",
      "type": "error"
    },
    {
      "inputs": [],
      "name": "SafeTransferFailed",
      "type": "error"
    },
    {
      "inputs": [
        {
          "internalType": "address",
          "name": "tokenA",
          "type": "address"
        },
        {
          "internalType": "address",
          "name": "tokenB",
          "type": "address"
        },
        {
          "internalType": "uint256",
          "name": "amountADesired",
          "type": "uint256"
        },
        {
          "internalType": "uint256",
          "name": "amountBDesired",
          "type": "uint256"
        },
        {
          "internalType": "uint256",
          "name": "amountAMin",
          "type": "uint256"
        },
        {
          "internalType": "uint256",
          "name": "amountBMin",
          "type": "uint256"
        },
        {
          "internalType": "address",
          "name": "to",
          "type": "address"
        }
      ],
      "name": "addLiquidity",
      "outputs": [
        {
          "internalType": "uint256",
          "name": "amountA",
          "type": "uint256"
        },
        {
          "internalType": "uint256",
          "name": "amountB",
          "type": "uint256"
        },
        {
          "internalType": "uint256",
          "name": "liquidity",
          "type": "uint256"
        }
      ],
      "stateMutability": "nonpayable",
      "type": "function"
    },
    {
      "inputs": [
        {
          "internalType": "address",
          "name": "tokenA",
          "type": "address"
        },
        {
          "internalType": "address",
          "name": "tokenB",
          "type": "address"
        },
        {
          "internalType": "uint256",
          "name": "liquidity",
          "type": "uint256"
        },
        {
          "internalType": "uint256",
          "name": "amountAMin",
          "type": "uint256"
        },
        {
          "internalType": "uint256",
          "name": "amountBMin",
          "type": "uint256"
        },
        {
          "internalType": "address",
          "name": "to",
          "type": "address"
        }
      ],
      "name": "removeLiquidity",
      "outputs": [
        {
          "internalType": "uint256",
          "name": "amountA",
          "type": "uint256"
        },
        {
          "internalType": "uint256",
          "name": "amountB",
          "type": "uint256"
        }
      ],
      "stateMutability": "nonpayable",
      "type": "function"
    },
    {
      "inputs": [
        {
          "internalType": "uint256",
          "name": "amountIn",
          "type": "uint256"
        },
        {
          "internalType": "uint256",
          "name": "amountOutMin",
          "type": "uint256"
        },
        {
          "internalType": "address[]",
          "name": "path",
          "type": "address[]"
        },
        {
          "internalType": "address",
          "name": "to",
          "type": "address"
        }
      ],
      "name": "swapExactTokensForTokens",
      "outputs": [
        {
          "internalType": "uint256[]",
          "name": "amounts",
          "type": "uint256[]"
        }
      ],
      "stateMutability": "nonpayable",
      "type": "function"
    },
    {
      "inputs": [
        {
          "internalType": "uint256",
          "name": "amountOut",
          "type": "uint256"
        },
        {
          "internalType": "uint256",
          "name": "amountInMax",
          "type": "uint256"
        },
        {
          "internalType": "address[]",
          "name": "path",
          "type": "address[]"
        },
        {
          "internalType": "address",
          "name": "to",
          "type": "address"
        }
      ],
      "name": "swapTokensForExactTokens",
      "outputs": [
        {
          "internalType": "uint256[]",
          "name": "amounts",
          "type": "uint256[]"
        }
      ],
      "stateMutability": "nonpayable",
      "type": "function"
    }
  ],
  "bytecode": {
    "object": "0x608060405234801561001057600080fd5b506040516132dd3803806132dd83398101604081905261002f91610054565b600080546001600160a01b0319166001600160a01b0392909216919091179055610084565b60006020828403121561006657600080fd5b81516001600160a01b038116811461007d57600080fd5b9392505050565b61324a806100936000396000f3fe60806040523480156200001157600080fd5b5060043610620000525760003560e01c806342712a671462000057578063472b43f31462000086578063c0e3ee6b146200009d578063ca3d653914620000ca575b600080fd5b6200006e6200006836600462000d9d565b620000fd565b6040516200007d919062000e42565b60405180910390f35b6200006e6200009736600462000d9d565b620002f5565b620000b4620000ae36600462000e88565b620003db565b604080519283526020830191909152016200007d565b620000e1620000db36600462000ef6565b6200053a565b604080519384526020840192909252908201526060016200007d565b600054604051630c90945960e11b815260609173__$7dac1f9ec63f898e2969102f34c3f5feb6$__9163192128b2916200014c916001600160a01b03909116908a908990899060040162000f6f565b600060405180830381865af41580156200016a573d6000803e3d6000fd5b505050506040513d6000823e601f3d908101601f1916820160405262000194919081019062000fec565b9050848160018351620001a89190620010cc565b81518110620001bb57620001bb620010e6565b60200260200101511115620001e35760405163e1b0da4f60e01b815260040160405180910390fd5b620002ab84846000818110620001fd57620001fd620010e6565b9050602002016020810190620002149190620010fc565b60008054339162000287916001600160a01b03169089908990816200023d576200023d620010e6565b9050602002016020810190620002549190620010fc565b898960018181106200026a576200026a620010e6565b9050602002016020810190620002819190620010fc565b62000715565b846000815181106200029d576200029d620010e6565b602002602001015162000801565b620002ec8185858080602002602001604051908101604052809392919081815260200183836020028082843760009201919091525087925062000902915050565b95945050505050565b600054604051635dbdce3b60e11b815260609173__$7dac1f9ec63f898e2969102f34c3f5feb6$__9163bb7b9c769162000344916001600160a01b03909116908a908990899060040162000f6f565b600060405180830381865af415801562000362573d6000803e3d6000fd5b505050506040513d6000823e601f3d908101601f191682016040526200038c919081019062000fec565b9050848160018351620003a09190620010cc565b81518110620003b357620003b3620010e6565b60200260200101511015620001e3576040516342301c2360e01b815260040160405180910390fd5b6000805481908190620003f9906001600160a01b03168a8a62000715565b6040516323b872dd60e01b81523360048201526001600160a01b03821660248201819052604482018a90529192506323b872dd906064016020604051808303816000875af115801562000450573d6000803e3d6000fd5b505050506040513d601f19601f8201168201806040525081019062000476919062001123565b5060405163226bf2d160e21b81526001600160a01b0385811660048301528216906389afcb449060240160408051808303816000875af1158015620004bf573d6000803e3d6000fd5b505050506040513d601f19601f82011682018060405250810190620004e5919062001147565b9093509150858310156200050c57604051638dc525d160e01b815260040160405180910390fd5b848310156200052e5760405163ef71d09160e01b815260040160405180910390fd5b50965096945050505050565b600080546040516334a2a5c360e11b81526001600160a01b038a811660048301528981166024830152839283928392909116906369454b8690604401602060405180830381865afa15801562000594573d6000803e3d6000fd5b505050506040513d601f19601f82011682018060405250810190620005ba91906200116c565b6001600160a01b0316141562000647576000546040516364e329cb60e11b81526001600160a01b038c811660048301528b811660248301529091169063c9c65396906044016020604051808303816000875af11580156200061f573d6000803e3d6000fd5b505050506040513d601f19601f820116820180604052508101906200064591906200116c565b505b620006578a8a8a8a8a8a62000af3565b600080549295509093509062000678906001600160a01b03168c8c62000715565b9050620006888b33838762000801565b620006968a33838662000801565b6040516335313c2160e11b81526001600160a01b038681166004830152821690636a627842906024016020604051808303816000875af1158015620006df573d6000803e3d6000fd5b505050506040513d601f19601f820116820180604052508101906200070591906200118c565b9150509750975097945050505050565b600080600062000726858562000d43565b6040516bffffffffffffffffffffffff19606084811b8216602084015283901b1660348201529193509150869060480160405160208183030381529060405280519060200120604051806020016200077e9062000d76565b6020820181038252601f19601f8201166040525080519060200120604051602001620007df939291906001600160f81b0319815260609390931b6bffffffffffffffffffffffff191660018401526015830191909152603582015260550190565b60408051601f1981840301815291905280516020909101209695505050505050565b6040516001600160a01b038481166024830152838116604483015260648201839052600091829187169060840160408051601f198184030181529181526020820180516001600160e01b03166323b872dd60e01b17905251620008659190620011a6565b6000604051808303816000865af19150503d8060008114620008a4576040519150601f19603f3d011682016040523d82523d6000602084013e620008a9565b606091505b5091509150811580620008db5750805115801590620008db575080806020019051810190620008d9919062001123565b155b15620008fa5760405163fb7f507960e01b815260040160405180910390fd5b505050505050565b60005b60018351620009159190620010cc565b81101562000aed57600080848381518110620009355762000935620010e6565b6020026020010151858460016200094d9190620011e4565b81518110620009605762000960620010e6565b60200260200101519150915060006200097a838362000d43565b5090506000876200098d866001620011e4565b81518110620009a057620009a0620010e6565b60200260200101519050600080836001600160a01b0316866001600160a01b031614620009d057826000620009d4565b6000835b91509150600060028a51620009ea9190620010cc565b8810620009f8578862000a39565b60005462000a39906001600160a01b0316878c62000a188c6002620011e4565b8151811062000a2b5762000a2b620010e6565b602002602001015162000715565b60005490915062000a55906001600160a01b0316888862000715565b60405163022c0d9f60e01b815260048101859052602481018490526001600160a01b0383811660448301526080606483015260006084830152919091169063022c0d9f9060a401600060405180830381600087803b15801562000ab757600080fd5b505af115801562000acc573d6000803e3d6000fd5b5050505050505050505050808062000ae490620011ff565b91505062000905565b50505050565b60008054604051633274946160e01b81526001600160a01b0391821660048201528882166024820152908716604482015281908190819073__$7dac1f9ec63f898e2969102f34c3f5feb6$__906332749461906064016040805180830381865af415801562000b66573d6000803e3d6000fd5b505050506040513d601f19601f8201168201806040525081019062000b8c919062001147565b9150915081600014801562000b9f575080155b1562000bb15787935086925062000d36565b604051632b58577b60e21b815260048101899052602481018390526044810182905260009073__$7dac1f9ec63f898e2969102f34c3f5feb6$__9063ad615dec90606401602060405180830381865af415801562000c13573d6000803e3d6000fd5b505050506040513d601f19601f8201168201806040525081019062000c3991906200118c565b905087811162000c705785811162000c645760405163ef71d09160e01b815260040160405180910390fd5b88945092508262000d34565b604051632b58577b60e21b815260048101899052602481018390526044810184905260009073__$7dac1f9ec63f898e2969102f34c3f5feb6$__9063ad615dec90606401602060405180830381865af415801562000cd2573d6000803e3d6000fd5b505050506040513d601f19601f8201168201806040525081019062000cf891906200118c565b90508981111562000d0d5762000d0d6200121d565b87811162000d2e57604051638dc525d160e01b815260040160405180910390fd5b94508793505b505b5050965096945050505050565b600080826001600160a01b0316846001600160a01b03161062000d6857828462000d6b565b83835b915091509250929050565b611fe1806200123483390190565b6001600160a01b038116811462000d9a57600080fd5b50565b60008060008060006080868803121562000db657600080fd5b8535945060208601359350604086013567ffffffffffffffff8082111562000ddd57600080fd5b818801915088601f83011262000df257600080fd5b81358181111562000e0257600080fd5b8960208260051b850101111562000e1857600080fd5b602083019550809450505050606086013562000e348162000d84565b809150509295509295909350565b6020808252825182820181905260009190848201906040850190845b8181101562000e7c5783518352928401929184019160010162000e5e565b50909695505050505050565b60008060008060008060c0878903121562000ea257600080fd5b863562000eaf8162000d84565b9550602087013562000ec18162000d84565b945060408701359350606087013592506080870135915060a087013562000ee88162000d84565b809150509295509295509295565b600080600080600080600060e0888a03121562000f1257600080fd5b873562000f1f8162000d84565b9650602088013562000f318162000d84565b955060408801359450606088013593506080880135925060a0880135915060c088013562000f5f8162000d84565b8091505092959891949750929550565b6001600160a01b03858116825260208083018690526060604084018190528301849052600091859160808501845b8781101562000fc857843562000fb38162000d84565b84168252938201939082019060010162000f9d565b509998505050505050505050565b634e487b7160e01b600052604160045260246000fd5b600060208083850312156200100057600080fd5b825167ffffffffffffffff808211156200101957600080fd5b818501915085601f8301126200102e57600080fd5b81518181111562001043576200104362000fd6565b8060051b604051601f19603f830116810181811085821117156200106b576200106b62000fd6565b6040529182528482019250838101850191888311156200108a57600080fd5b938501935b82851015620010aa578451845293850193928501926200108f565b98975050505050505050565b634e487b7160e01b600052601160045260246000fd5b600082821015620010e157620010e1620010b6565b500390565b634e487b7160e01b600052603260045260246000fd5b6000602082840312156200110f57600080fd5b81356200111c8162000d84565b9392505050565b6000602082840312156200113657600080fd5b815180151581146200111c57600080fd5b600080604083850312156200115b57600080fd5b505080516020909101519092909150565b6000602082840312156200117f57600080fd5b81516200111c8162000d84565b6000602082840312156200119f57600080fd5b5051919050565b6000825160005b81811015620011c95760208186018101518583015201620011ad565b81811115620011d9576000828501525b509190910192915050565b60008219821115620011fa57620011fa620010b6565b500190565b6000600019821415620012165762001216620010b6565b5060010190565b634e487b7160e01b600052600160045260246000fdfe60e06040523480156200001157600080fd5b50604080518082018252600e81526d2ab734b9bbb0b82b19102830b4b960911b6020808301918252835180850190945260058452642aa724ab1960d91b90840152815191929160129162000069916000919062000153565b5081516200007f90600190602085019062000153565b5060ff81166080524660a05262000095620000a2565b60c05250620002da915050565b60007f8b73c3c69bb8fe3d512ecc4cf759cc79239f7b179b0ffacaa9a75d522b39400f6000604051620000d6919062000236565b60408051918290038220828201825260018352603160f81b6020938401528151928301939093528101919091527fc89efdaa54c0f20c7adf612882df0950f5a951637e0307cdcb4c672f298b8bc660608201524660808201523060a082015260c00160405160208183030381529060405280519060200120905090565b8280546200016190620001f9565b90600052602060002090601f016020900481019282620001855760008555620001d0565b82601f10620001a057805160ff1916838001178555620001d0565b82800160010185558215620001d0579182015b82811115620001d0578251825591602001919060010190620001b3565b50620001de929150620001e2565b5090565b5b80821115620001de5760008155600101620001e3565b600181811c908216806200020e57607f821691505b602082108114156200023057634e487b7160e01b600052602260045260246000fd5b50919050565b600080835481600182811c9150808316806200025357607f831692505b60208084108214156200027457634e487b7160e01b86526022600452602486fd5b8180156200028b57600181146200029d57620002cc565b60ff19861689528489019650620002cc565b60008a81526020902060005b86811015620002c45781548b820152908501908301620002a9565b505084890196505b509498975050505050505050565b60805160a05160c051611cd76200030a60003960006109e1015260006109ac0152600061025d0152611cd76000f3fe608060405234801561001057600080fd5b506004361061014d5760003560e01c80635909c0d5116100c357806395d89b411161007c57806395d89b4114610339578063a9059cbb14610341578063d21220a714610354578063d505accf14610367578063dd62ed3e1461037a578063fff6cae9146103a557600080fd5b80635909c0d5146102ac5780635a3d5493146102b55780636a627842146102be57806370a08231146102d15780637ecebe00146102f157806389afcb441461031157600080fd5b806318160ddd1161011557806318160ddd1461020757806323b872dd1461021e57806330adf81f14610231578063313ce567146102585780633644e51514610291578063485cc9551461029957600080fd5b8063022c0d9f1461015257806306fdde03146101675780630902f1ac14610185578063095ea7b3146101b95780630dfe1681146101dc575b600080fd5b61016561016036600461180c565b6103ad565b005b61016f61079c565b60405161017c91906118d0565b60405180910390f35b61018d61082a565b604080516001600160701b03948516815293909216602084015263ffffffff169082015260600161017c565b6101cc6101c7366004611903565b610854565b604051901515815260200161017c565b6006546101ef906001600160a01b031681565b6040516001600160a01b03909116815260200161017c565b61021060025481565b60405190815260200161017c565b6101cc61022c36600461192d565b6108c0565b6102107f6e71edae12b1b97f4d1f60370fef10105fa2faae0126114a169c64845d6126c981565b61027f7f000000000000000000000000000000000000000000000000000000000000000081565b60405160ff909116815260200161017c565b6102106109a8565b6101656102a7366004611969565b610a03565b61021060095481565b610210600a5481565b6102106102cc36600461199c565b610a71565b6102106102df36600461199c565b60036020526000908152604090205481565b6102106102ff36600461199c565b60056020526000908152604090205481565b61032461031f36600461199c565b610cad565b6040805192835260208301919091520161017c565b61016f610f8c565b6101cc61034f366004611903565b610f99565b6007546101ef906001600160a01b031681565b6101656103753660046119b7565b610fff565b610210610388366004611969565b600460209081526000928352604080842090915290825290205481565b610165611264565b600b5460ff16156103bd57600080fd5b600b805460ff19166001179055841580156103d6575083155b156103f4576040516342301c2360e01b815260040160405180910390fd5b6000806103ff61082a565b5091509150816001600160701b03168711806104235750806001600160701b031686115b156104415760405163bb55fd2760e01b815260040160405180910390fd5b861561045e5760065461045e906001600160a01b03168689611361565b851561047b5760075461047b906001600160a01b03168688611361565b82156104e8576040516304347a1760e21b81526001600160a01b038616906310d1e85c906104b59033908b908b908a908a90600401611a2a565b600060405180830381600087803b1580156104cf57600080fd5b505af11580156104e3573d6000803e3d6000fd5b505050505b6006546040516370a0823160e01b81523060048201526000916001600160a01b0316906370a08231906024016020604051808303816000875af1158015610533573d6000803e3d6000fd5b505050506040513d601f19601f820116820180604052508101906105579190611a76565b6007546040516370a0823160e01b81523060048201529192506000916001600160a01b03909116906370a08231906024016020604051808303816000875af11580156105a7573d6000803e3d6000fd5b505050506040513d601f19601f820116820180604052508101906105cb9190611a76565b6008549091506000906105e8908b906001600160701b0316611aa5565b83116105f5576000610616565b60085461060c908b906001600160701b0316611aa5565b6106169084611aa5565b60085490915060009061063a908b90600160701b90046001600160701b0316611aa5565b831161064757600061066f565b600854610665908b90600160701b90046001600160701b0316611aa5565b61066f9084611aa5565b90508115801561067d575080155b1561069b5760405163098fb56160e01b815260040160405180910390fd5b60006106a8836003611abc565b6106b4866103e8611abc565b6106be9190611aa5565b905060006106cd836003611abc565b6106d9866103e8611abc565b6106e39190611aa5565b90506106fb6001600160701b03808916908a16611abc565b61070890620f4240611abc565b6107128284611abc565b101561073157604051632f62f0d960e21b815260040160405180910390fd5b61073d86868a8a611450565b604080518e8152602081018e90526001600160a01b038d169133917f2a9237ff5aa599ef4c5ee4b1142b53429d5755e2685fe6288b2e3320202115f5910160405180910390a35050600b805460ff191690555050505050505050505050565b600080546107a990611adb565b80601f01602080910402602001604051908101604052809291908181526020018280546107d590611adb565b80156108225780601f106107f757610100808354040283529160200191610822565b820191906000526020600020905b81548152906001019060200180831161080557829003601f168201915b505050505081565b6008546001600160701b0380821692600160701b830490911691600160e01b900463ffffffff1690565b3360008181526004602090815260408083206001600160a01b038716808552925280832085905551919290917f8c5be1e5ebec7d5bd14f71427d1e84f3dd0314c0f7b2291e5b200ac8c7c3b925906108af9086815260200190565b60405180910390a350600192915050565b6001600160a01b038316600090815260046020908152604080832033845290915281205460001914610925576001600160a01b03841660009081526004602090815260408083203384529091528120805484929061091f908490611aa5565b90915550505b6001600160a01b0384166000908152600360205260408120805484929061094d908490611aa5565b90915550506001600160a01b0380841660008181526003602052604090819020805486019055519091861690600080516020611c82833981519152906109969086815260200190565b60405180910390a35060019392505050565b60007f000000000000000000000000000000000000000000000000000000000000000046146109de576109d96115ce565b905090565b507f000000000000000000000000000000000000000000000000000000000000000090565b6006546001600160a01b0316151580610a2657506007546001600160a01b031615155b15610a435760405162dc149f60e41b815260040160405180910390fd5b600680546001600160a01b039384166001600160a01b03199182161790915560078054929093169116179055565b6000806000610a7e61082a565b506006546040516370a0823160e01b81523060048201529294509092506000916001600160a01b03909116906370a08231906024016020604051808303816000875af1158015610ad2573d6000803e3d6000fd5b505050506040513d601f19601f82011682018060405250810190610af69190611a76565b6007546040516370a0823160e01b81523060048201529192506000916001600160a01b03909116906370a08231906024016020604051808303816000875af1158015610b46573d6000803e3d6000fd5b505050506040513d601f19601f82011682018060405250810190610b6a9190611a76565b90506000610b816001600160701b03861684611aa5565b90506000610b986001600160701b03861684611aa5565b905060025460001415610bd8576103e8610bba610bb58385611abc565b61167d565b610bc49190611aa5565b9650610bd360006103e86116ed565b610c27565b610c24866001600160701b031660025484610bf39190611abc565b610bfd9190611b26565b866001600160701b031660025484610c159190611abc565b610c1f9190611b26565b611747565b96505b60008711610c4857604051633489be7560e21b815260040160405180910390fd5b610c5288886116ed565b610c5e84848888611450565b60408051838152602081018390526001600160a01b038a16917f4c209b5fc8ad50758f13e2e1088ba56a560dff690a1c6fef26394f4c03821c4f910160405180910390a2505050505050919050565b6006546040516370a0823160e01b8152306004820152600091829182916001600160a01b0316906370a08231906024016020604051808303816000875af1158015610cfc573d6000803e3d6000fd5b505050506040513d601f19601f82011682018060405250810190610d209190611a76565b6007546040516370a0823160e01b81523060048201529192506000916001600160a01b03909116906370a08231906024016020604051808303816000875af1158015610d70573d6000803e3d6000fd5b505050506040513d601f19601f82011682018060405250810190610d949190611a76565b3060009081526003602052604090205460025491925090610db58483611abc565b610dbf9190611b26565b600254909550610dcf8383611abc565b610dd99190611b26565b9350841580610de6575083155b15610e045760405163749383ad60e01b815260040160405180910390fd5b610e0e308261175f565b600654610e25906001600160a01b03168787611361565b600754610e3c906001600160a01b03168786611361565b6006546040516370a0823160e01b81523060048201526001600160a01b03909116906370a08231906024016020604051808303816000875af1158015610e86573d6000803e3d6000fd5b505050506040513d601f19601f82011682018060405250810190610eaa9190611a76565b6007546040516370a0823160e01b81523060048201529194506001600160a01b0316906370a08231906024016020604051808303816000875af1158015610ef5573d6000803e3d6000fd5b505050506040513d601f19601f82011682018060405250810190610f199190611a76565b9150600080610f2661082a565b5091509150610f3785858484611450565b60408051888152602081018890526001600160a01b038a1681830152905133917fdccd412f0b1252819cb1fd330b93224ca42612892bb3f4f789976e6d81936496919081900360600190a25050505050915091565b600180546107a990611adb565b33600090815260036020526040812080548391908390610fba908490611aa5565b90915550506001600160a01b03831660008181526003602052604090819020805485019055513390600080516020611c82833981519152906108af9086815260200190565b428410156110545760405162461bcd60e51b815260206004820152601760248201527f5045524d49545f444541444c494e455f4558504952454400000000000000000060448201526064015b60405180910390fd5b600061105e6109a8565b6001600160a01b0389811660008181526005602090815260409182902080546001810190915582517f6e71edae12b1b97f4d1f60370fef10105fa2faae0126114a169c64845d6126c98184015280840194909452938c166060840152608083018b905260a083019390935260c08083018a90528151808403909101815260e08301909152805192019190912061190160f01b6101008301526101028201929092526101228101919091526101420160408051601f198184030181528282528051602091820120600080855291840180845281905260ff88169284019290925260608301869052608083018590529092509060019060a0016020604051602081039080840390855afa158015611177573d6000803e3d6000fd5b5050604051601f1901519150506001600160a01b038116158015906111ad5750886001600160a01b0316816001600160a01b0316145b6111f95760405162461bcd60e51b815260206004820152601860248201527f494e56414c49445f5045524d49545f5349474e41545552450000000000000000604482015260640161104b565b6001600160a01b0390811660009081526004602090815260408083208b8516808552908352928190208a905551898152919350918a16917f8c5be1e5ebec7d5bd14f71427d1e84f3dd0314c0f7b2291e5b200ac8c7c3b925910160405180910390a350505050505050565b60008061126f61082a565b506006546040516370a0823160e01b815230600482015292945090925061135d916001600160a01b03909116906370a08231906024016020604051808303816000875af11580156112c4573d6000803e3d6000fd5b505050506040513d601f19601f820116820180604052508101906112e89190611a76565b6007546040516370a0823160e01b81523060048201526001600160a01b03909116906370a08231906024016020604051808303816000875af1158015611332573d6000803e3d6000fd5b505050506040513d601f19601f820116820180604052508101906113569190611a76565b8484611450565b5050565b6040516001600160a01b03838116602483015260448201839052600091829186169060640160408051601f198184030181529181526020820180516001600160e01b031663a9059cbb60e01b179052516113bb9190611b3a565b6000604051808303816000865af19150503d80600081146113f8576040519150601f19603f3d011682016040523d82523d6000602084013e6113fd565b606091505b509150915081158061142b575080511580159061142b5750808060200190518101906114299190611b56565b155b15611449576040516312171d8360e31b815260040160405180910390fd5b5050505050565b6001600160701b0384118061146b57506001600160701b0383115b15611489576040516389560ca160e01b815260040160405180910390fd5b60085463ffffffff600160e01b90910481164203908116158015906114b757506000836001600160701b0316115b80156114cc57506000826001600160701b0316115b15611537578063ffffffff166114f4846114e5856117c1565b6001600160e01b0316906117e0565b600980546001600160e01b03929092169290920201905563ffffffff811661151f836114e5866117c1565b600a80546001600160e01b0392909216929092020190555b506008805463ffffffff4216600160e01b026001600160e01b036001600160701b03878116600160701b9081026001600160e01b03199095168a83161794909417918216831794859055604080519382169282169290921783529290930490911660208201527fcf2aa50876cdfbb541206f89af0ee78d44a2abf8d328e37fa4917f982149848a910160405180910390a150505050565b60007f8b73c3c69bb8fe3d512ecc4cf759cc79239f7b179b0ffacaa9a75d522b39400f60006040516116009190611b78565b60408051918290038220828201825260018352603160f81b6020938401528151928301939093528101919091527fc89efdaa54c0f20c7adf612882df0950f5a951637e0307cdcb4c672f298b8bc660608201524660808201523060a082015260c00160405160208183030381529060405280519060200120905090565b600060038211156116de5750806000611697600283611b26565b6116a2906001611c14565b90505b818110156116d8579050806002816116bd8186611b26565b6116c79190611c14565b6116d19190611b26565b90506116a5565b50919050565b81156116e8575060015b919050565b80600260008282546116ff9190611c14565b90915550506001600160a01b038216600081815260036020908152604080832080548601905551848152600080516020611c8283398151915291015b60405180910390a35050565b60008183106117565781611758565b825b9392505050565b6001600160a01b03821660009081526003602052604081208054839290611787908490611aa5565b90915550506002805482900390556040518181526000906001600160a01b03841690600080516020611c828339815191529060200161173b565b60006117da600160701b6001600160701b038416611c2c565b92915050565b60006117586001600160701b03831684611c5b565b80356001600160a01b03811681146116e857600080fd5b60008060008060006080868803121561182457600080fd5b853594506020860135935061183b604087016117f5565b9250606086013567ffffffffffffffff8082111561185857600080fd5b818801915088601f83011261186c57600080fd5b81358181111561187b57600080fd5b89602082850101111561188d57600080fd5b9699959850939650602001949392505050565b60005b838110156118bb5781810151838201526020016118a3565b838111156118ca576000848401525b50505050565b60208152600082518060208401526118ef8160408501602087016118a0565b601f01601f19169190910160400192915050565b6000806040838503121561191657600080fd5b61191f836117f5565b946020939093013593505050565b60008060006060848603121561194257600080fd5b61194b846117f5565b9250611959602085016117f5565b9150604084013590509250925092565b6000806040838503121561197c57600080fd5b611985836117f5565b9150611993602084016117f5565b90509250929050565b6000602082840312156119ae57600080fd5b611758826117f5565b600080600080600080600060e0888a0312156119d257600080fd5b6119db886117f5565b96506119e9602089016117f5565b95506040880135945060608801359350608088013560ff81168114611a0d57600080fd5b9699959850939692959460a0840135945060c09093013592915050565b60018060a01b038616815284602082015283604082015260806060820152816080820152818360a0830137600081830160a090810191909152601f909201601f19160101949350505050565b600060208284031215611a8857600080fd5b5051919050565b634e487b7160e01b600052601160045260246000fd5b600082821015611ab757611ab7611a8f565b500390565b6000816000190483118215151615611ad657611ad6611a8f565b500290565b600181811c90821680611aef57607f821691505b602082108114156116d857634e487b7160e01b600052602260045260246000fd5b634e487b7160e01b600052601260045260246000fd5b600082611b3557611b35611b10565b500490565b60008251611b4c8184602087016118a0565b9190910192915050565b600060208284031215611b6857600080fd5b8151801515811461175857600080fd5b600080835481600182811c915080831680611b9457607f831692505b6020808410821415611bb457634e487b7160e01b86526022600452602486fd5b818015611bc85760018114611bd957611c06565b60ff19861689528489019650611c06565b60008a81526020902060005b86811015611bfe5781548b820152908501908301611be5565b505084890196505b509498975050505050505050565b60008219821115611c2757611c27611a8f565b500190565b60006001600160e01b0382811684821681151582840482111615611c5257611c52611a8f565b02949350505050565b60006001600160e01b0383811680611c7557611c75611b10565b9216919091049291505056feddf252ad1be2c89b69c2b068fc378daa952ba7f163c4a11628f55a4df523b3efa264697066735822122046d47695eb71ce446a987b16abbcebc59fdc8498ca778a43104fe514f786fece64736f6c634300080a0033a2646970667358221220e980c34c9d05a928cd46937bbab5a561ae6c988f57ceb5dd5cad3ab12e3e6d8c64736f6c634300080a0033",
    "linkReferences": {
      "src/UniswapV2Library.sol": {
        "UniswapV2Library": [
          {
            "start": 421,
            "length": 20
          },
          {
            "start": 925,
            "length": 20
          },
          {
            "start": 3007,
            "length": 20
          },
          {
            "start": 3179,
            "length": 20
          },
          {
            "start": 3370,
            "length": 20
          }
        ]
      }
    }
  },
  "methodIdentifiers": {
    "addLiquidity(address,address,uint256,uint256,uint256,uint256,address)": "ca3d6539",
    "removeLiquidity(address,address,uint256,uint256,uint256,address)": "c0e3ee6b",
    "swapExactTokensForTokens(uint256,uint256,address[],address)": "472b43f3",
    "swapTokensForExactTokens(uint256,uint256,address[],address)": "42712a67"
  },
  "id": 10
}